{
  "contractName": "Ethermon",
  "abi": [
    {
      "inputs": [],
      "stateMutability": "nonpayable",
      "type": "constructor"
    },
    {
      "anonymous": false,
      "inputs": [
        {
          "indexed": true,
          "internalType": "address",
          "name": "owner",
          "type": "address"
        },
        {
          "indexed": true,
          "internalType": "address",
          "name": "approved",
          "type": "address"
        },
        {
          "indexed": true,
          "internalType": "uint256",
          "name": "tokenId",
          "type": "uint256"
        }
      ],
      "name": "Approval",
      "type": "event"
    },
    {
      "anonymous": false,
      "inputs": [
        {
          "indexed": true,
          "internalType": "address",
          "name": "owner",
          "type": "address"
        },
        {
          "indexed": true,
          "internalType": "address",
          "name": "operator",
          "type": "address"
        },
        {
          "indexed": false,
          "internalType": "bool",
          "name": "approved",
          "type": "bool"
        }
      ],
      "name": "ApprovalForAll",
      "type": "event"
    },
    {
      "anonymous": false,
      "inputs": [
        {
          "indexed": true,
          "internalType": "address",
          "name": "from",
          "type": "address"
        },
        {
          "indexed": true,
          "internalType": "address",
          "name": "to",
          "type": "address"
        },
        {
          "indexed": true,
          "internalType": "uint256",
          "name": "tokenId",
          "type": "uint256"
        }
      ],
      "name": "Transfer",
      "type": "event"
    },
    {
      "inputs": [
        {
          "internalType": "address",
          "name": "to",
          "type": "address"
        },
        {
          "internalType": "uint256",
          "name": "tokenId",
          "type": "uint256"
        }
      ],
      "name": "approve",
      "outputs": [],
      "stateMutability": "nonpayable",
      "type": "function"
    },
    {
      "inputs": [
        {
          "internalType": "address",
          "name": "owner",
          "type": "address"
        }
      ],
      "name": "balanceOf",
      "outputs": [
        {
          "internalType": "uint256",
          "name": "",
          "type": "uint256"
        }
      ],
      "stateMutability": "view",
      "type": "function"
    },
    {
      "inputs": [],
      "name": "gameOwner",
      "outputs": [
        {
          "internalType": "address",
          "name": "",
          "type": "address"
        }
      ],
      "stateMutability": "view",
      "type": "function"
    },
    {
      "inputs": [
        {
          "internalType": "uint256",
          "name": "tokenId",
          "type": "uint256"
        }
      ],
      "name": "getApproved",
      "outputs": [
        {
          "internalType": "address",
          "name": "",
          "type": "address"
        }
      ],
      "stateMutability": "view",
      "type": "function"
    },
    {
      "inputs": [
        {
          "internalType": "address",
          "name": "owner",
          "type": "address"
        },
        {
          "internalType": "address",
          "name": "operator",
          "type": "address"
        }
      ],
      "name": "isApprovedForAll",
      "outputs": [
        {
          "internalType": "bool",
          "name": "",
          "type": "bool"
        }
      ],
      "stateMutability": "view",
      "type": "function"
    },
    {
      "inputs": [
        {
          "internalType": "uint256",
          "name": "",
          "type": "uint256"
        }
      ],
      "name": "monsters",
      "outputs": [
        {
          "internalType": "string",
          "name": "name",
          "type": "string"
        },
        {
          "internalType": "uint256",
          "name": "level",
          "type": "uint256"
        }
      ],
      "stateMutability": "view",
      "type": "function"
    },
    {
      "inputs": [],
      "name": "name",
      "outputs": [
        {
          "internalType": "string",
          "name": "",
          "type": "string"
        }
      ],
      "stateMutability": "view",
      "type": "function"
    },
    {
      "inputs": [
        {
          "internalType": "uint256",
          "name": "tokenId",
          "type": "uint256"
        }
      ],
      "name": "ownerOf",
      "outputs": [
        {
          "internalType": "address",
          "name": "",
          "type": "address"
        }
      ],
      "stateMutability": "view",
      "type": "function"
    },
    {
      "inputs": [
        {
          "internalType": "address",
          "name": "from",
          "type": "address"
        },
        {
          "internalType": "address",
          "name": "to",
          "type": "address"
        },
        {
          "internalType": "uint256",
          "name": "tokenId",
          "type": "uint256"
        }
      ],
      "name": "safeTransferFrom",
      "outputs": [],
      "stateMutability": "nonpayable",
      "type": "function"
    },
    {
      "inputs": [
        {
          "internalType": "address",
          "name": "from",
          "type": "address"
        },
        {
          "internalType": "address",
          "name": "to",
          "type": "address"
        },
        {
          "internalType": "uint256",
          "name": "tokenId",
          "type": "uint256"
        },
        {
          "internalType": "bytes",
          "name": "_data",
          "type": "bytes"
        }
      ],
      "name": "safeTransferFrom",
      "outputs": [],
      "stateMutability": "nonpayable",
      "type": "function"
    },
    {
      "inputs": [
        {
          "internalType": "address",
          "name": "operator",
          "type": "address"
        },
        {
          "internalType": "bool",
          "name": "approved",
          "type": "bool"
        }
      ],
      "name": "setApprovalForAll",
      "outputs": [],
      "stateMutability": "nonpayable",
      "type": "function"
    },
    {
      "inputs": [
        {
          "internalType": "bytes4",
          "name": "interfaceId",
          "type": "bytes4"
        }
      ],
      "name": "supportsInterface",
      "outputs": [
        {
          "internalType": "bool",
          "name": "",
          "type": "bool"
        }
      ],
      "stateMutability": "view",
      "type": "function"
    },
    {
      "inputs": [],
      "name": "symbol",
      "outputs": [
        {
          "internalType": "string",
          "name": "",
          "type": "string"
        }
      ],
      "stateMutability": "view",
      "type": "function"
    },
    {
      "inputs": [
        {
          "internalType": "uint256",
          "name": "tokenId",
          "type": "uint256"
        }
      ],
      "name": "tokenURI",
      "outputs": [
        {
          "internalType": "string",
          "name": "",
          "type": "string"
        }
      ],
      "stateMutability": "view",
      "type": "function"
    },
    {
      "inputs": [
        {
          "internalType": "address",
          "name": "from",
          "type": "address"
        },
        {
          "internalType": "address",
          "name": "to",
          "type": "address"
        },
        {
          "internalType": "uint256",
          "name": "tokenId",
          "type": "uint256"
        }
      ],
      "name": "transferFrom",
      "outputs": [],
      "stateMutability": "nonpayable",
      "type": "function"
    },
    {
      "inputs": [
        {
          "internalType": "uint256",
          "name": "x",
          "type": "uint256"
        }
      ],
      "name": "set",
      "outputs": [],
      "stateMutability": "nonpayable",
      "type": "function"
    },
    {
      "inputs": [],
      "name": "get",
      "outputs": [
        {
          "internalType": "uint256",
          "name": "",
          "type": "uint256"
        }
      ],
      "stateMutability": "view",
      "type": "function"
    },
    {
      "inputs": [],
      "name": "getMonji",
      "outputs": [
        {
          "internalType": "string",
          "name": "",
          "type": "string"
        }
      ],
      "stateMutability": "view",
      "type": "function"
    },
    {
      "inputs": [
        {
          "internalType": "uint256",
          "name": "_attackingMonster",
          "type": "uint256"
        },
        {
          "internalType": "uint256",
          "name": "_defendingMonster",
          "type": "uint256"
        }
      ],
      "name": "battle",
      "outputs": [],
      "stateMutability": "nonpayable",
      "type": "function"
    },
    {
      "inputs": [
        {
          "internalType": "string",
          "name": "_name",
          "type": "string"
        },
        {
          "internalType": "address",
          "name": "_to",
          "type": "address"
        }
      ],
      "name": "createNewMonster",
      "outputs": [],
      "stateMutability": "nonpayable",
      "type": "function"
    }
  ],
  "bytecode": "0x60806040526040518060400160405280600881526020017f6920747269656420000000000000000000000000000000000000000000000000815250600690805190602001906200005192919062000163565b503480156200005f57600080fd5b506040518060400160405280600281526020017f41420000000000000000000000000000000000000000000000000000000000008152506040518060400160405280600281526020017f43430000000000000000000000000000000000000000000000000000000000008152508160009080519060200190620000e492919062000163565b508060019080519060200190620000fd92919062000163565b50505033600960006101000a81548173ffffffffffffffffffffffffffffffffffffffff021916908373ffffffffffffffffffffffffffffffffffffffff16021790555062000153604e6200015960201b60201c565b62000278565b8060078190555050565b828054620001719062000213565b90600052602060002090601f016020900481019282620001955760008555620001e1565b82601f10620001b057805160ff1916838001178555620001e1565b82800160010185558215620001e1579182015b82811115620001e0578251825591602001919060010190620001c3565b5b509050620001f09190620001f4565b5090565b5b808211156200020f576000816000905550600101620001f5565b5090565b600060028204905060018216806200022c57607f821691505b6020821081141562000243576200024262000249565b5b50919050565b7f4e487b7100000000000000000000000000000000000000000000000000000000600052602260045260246000fd5b612e6f80620002886000396000f3fe608060405234801561001057600080fd5b506004361061012c5760003560e01c80636352211e116100ad578063b88d4fde11610071578063b88d4fde1461032d578063c0576b7314610349578063c87b56dd1461037a578063e985e9c5146103aa578063f6b12f28146103da5761012c565b80636352211e146102755780636d4ce63c146102a557806370a08231146102c357806395d89b41146102f3578063a22cb465146103115761012c565b80631bc9ed1d116100f45780631bc9ed1d146101e757806323b872dd146102055780632a0c52211461022157806342842e0e1461023d57806360fe47b1146102595761012c565b806301ffc9a71461013157806306fdde0314610161578063081812fc1461017f578063095ea7b3146101af578063115dd1ab146101cb575b600080fd5b61014b60048036038101906101469190611f43565b6103f8565b6040516101589190612797565b60405180910390f35b6101696104da565b60405161017691906127b2565b60405180910390f35b61019960048036038101906101949190611fe9565b61056c565b6040516101a69190612730565b60405180910390f35b6101c960048036038101906101c49190611f07565b6105f1565b005b6101e560048036038101906101e09190611f95565b610709565b005b6101ef61081c565b6040516101fc91906127b2565b60405180910390f35b61021f600480360381019061021a9190611e01565b6108ae565b005b61023b60048036038101906102369190612012565b61090e565b005b61025760048036038101906102529190611e01565b610aa9565b005b610273600480360381019061026e9190611fe9565b610ac9565b005b61028f600480360381019061028a9190611fe9565b610ad3565b60405161029c9190612730565b60405180910390f35b6102ad610b85565b6040516102ba9190612a04565b60405180910390f35b6102dd60048036038101906102d89190611d9c565b610b8f565b6040516102ea9190612a04565b60405180910390f35b6102fb610c47565b60405161030891906127b2565b60405180910390f35b61032b60048036038101906103269190611ecb565b610cd9565b005b61034760048036038101906103429190611e50565b610e5a565b005b610363600480360381019061035e9190611fe9565b610ebc565b6040516103719291906127d4565b60405180910390f35b610394600480360381019061038f9190611fe9565b610f78565b6040516103a191906127b2565b60405180910390f35b6103c460048036038101906103bf9190611dc5565b61101f565b6040516103d19190612797565b60405180910390f35b6103e26110b3565b6040516103ef9190612730565b60405180910390f35b60007f80ac58cd000000000000000000000000000000000000000000000000000000007bffffffffffffffffffffffffffffffffffffffffffffffffffffffff1916827bffffffffffffffffffffffffffffffffffffffffffffffffffffffff191614806104c357507f5b5e139f000000000000000000000000000000000000000000000000000000007bffffffffffffffffffffffffffffffffffffffffffffffffffffffff1916827bffffffffffffffffffffffffffffffffffffffffffffffffffffffff1916145b806104d357506104d2826110d9565b5b9050919050565b6060600080546104e990612c64565b80601f016020809104026020016040519081016040528092919081815260200182805461051590612c64565b80156105625780601f1061053757610100808354040283529160200191610562565b820191906000526020600020905b81548152906001019060200180831161054557829003601f168201915b5050505050905090565b600061057782611143565b6105b6576040517f08c379a00000000000000000000000000000000000000000000000000000000081526004016105ad90612964565b60405180910390fd5b6004600083815260200190815260200160002060009054906101000a900473ffffffffffffffffffffffffffffffffffffffff169050919050565b60006105fc82610ad3565b90508073ffffffffffffffffffffffffffffffffffffffff168373ffffffffffffffffffffffffffffffffffffffff16141561066d576040517f08c379a0000000000000000000000000000000000000000000000000000000008152600401610664906129c4565b60405180910390fd5b8073ffffffffffffffffffffffffffffffffffffffff1661068c6111af565b73ffffffffffffffffffffffffffffffffffffffff1614806106bb57506106ba816106b56111af565b61101f565b5b6106fa576040517f08c379a00000000000000000000000000000000000000000000000000000000081526004016106f1906128e4565b60405180910390fd5b61070483836111b7565b505050565b600960009054906101000a900473ffffffffffffffffffffffffffffffffffffffff1673ffffffffffffffffffffffffffffffffffffffff163373ffffffffffffffffffffffffffffffffffffffff1614610799576040517f08c379a000000000000000000000000000000000000000000000000000000000815260040161079090612844565b60405180910390fd5b6000600880549050905060086040518060400160405280858152602001600181525090806001815401808255809150506001900390600052602060002090600202016000909190919091506000820151816000019080519060200190610800929190611bc0565b506020820151816001015550506108178282611270565b505050565b60606006805461082b90612c64565b80601f016020809104026020016040519081016040528092919081815260200182805461085790612c64565b80156108a45780601f10610879576101008083540402835291602001916108a4565b820191906000526020600020905b81548152906001019060200180831161088757829003601f168201915b5050505050905090565b6108bf6108b96111af565b8261128e565b6108fe576040517f08c379a00000000000000000000000000000000000000000000000000000000081526004016108f5906129e4565b60405180910390fd5b61090983838361136c565b505050565b813373ffffffffffffffffffffffffffffffffffffffff1661092f82610ad3565b73ffffffffffffffffffffffffffffffffffffffff1614610985576040517f08c379a000000000000000000000000000000000000000000000000000000000815260040161097c90612864565b60405180910390fd5b6000600884815481106109c1577f4e487b7100000000000000000000000000000000000000000000000000000000600052603260045260246000fd5b90600052602060002090600202019050600060088481548110610a0d577f4e487b7100000000000000000000000000000000000000000000000000000000600052603260045260246000fd5b906000526020600020906002020190508060010154826001015410610a69576002826001016000828254610a419190612af3565b925050819055506001816001016000828254610a5d9190612af3565b92505081905550610aa2565b6001826001016000828254610a7e9190612af3565b925050819055506002826001016000828254610a9a9190612af3565b925050819055505b5050505050565b610ac483838360405180602001604052806000815250610e5a565b505050565b8060078190555050565b6000806002600084815260200190815260200160002060009054906101000a900473ffffffffffffffffffffffffffffffffffffffff169050600073ffffffffffffffffffffffffffffffffffffffff168173ffffffffffffffffffffffffffffffffffffffff161415610b7c576040517f08c379a0000000000000000000000000000000000000000000000000000000008152600401610b7390612924565b60405180910390fd5b80915050919050565b6000600754905090565b60008073ffffffffffffffffffffffffffffffffffffffff168273ffffffffffffffffffffffffffffffffffffffff161415610c00576040517f08c379a0000000000000000000000000000000000000000000000000000000008152600401610bf790612904565b60405180910390fd5b600360008373ffffffffffffffffffffffffffffffffffffffff1673ffffffffffffffffffffffffffffffffffffffff168152602001908152602001600020549050919050565b606060018054610c5690612c64565b80601f0160208091040260200160405190810160405280929190818152602001828054610c8290612c64565b8015610ccf5780601f10610ca457610100808354040283529160200191610ccf565b820191906000526020600020905b815481529060010190602001808311610cb257829003601f168201915b5050505050905090565b610ce16111af565b73ffffffffffffffffffffffffffffffffffffffff168273ffffffffffffffffffffffffffffffffffffffff161415610d4f576040517f08c379a0000000000000000000000000000000000000000000000000000000008152600401610d46906128a4565b60405180910390fd5b8060056000610d5c6111af565b73ffffffffffffffffffffffffffffffffffffffff1673ffffffffffffffffffffffffffffffffffffffff16815260200190815260200160002060008473ffffffffffffffffffffffffffffffffffffffff1673ffffffffffffffffffffffffffffffffffffffff16815260200190815260200160002060006101000a81548160ff0219169083151502179055508173ffffffffffffffffffffffffffffffffffffffff16610e096111af565b73ffffffffffffffffffffffffffffffffffffffff167f17307eab39ab6107e8899845ad3d59bd9653f200f220920489ca2b5937696c3183604051610e4e9190612797565b60405180910390a35050565b610e6b610e656111af565b8361128e565b610eaa576040517f08c379a0000000000000000000000000000000000000000000000000000000008152600401610ea1906129e4565b60405180910390fd5b610eb6848484846115c8565b50505050565b60088181548110610ecc57600080fd5b9060005260206000209060020201600091509050806000018054610eef90612c64565b80601f0160208091040260200160405190810160405280929190818152602001828054610f1b90612c64565b8015610f685780601f10610f3d57610100808354040283529160200191610f68565b820191906000526020600020905b815481529060010190602001808311610f4b57829003601f168201915b5050505050908060010154905082565b6060610f8382611143565b610fc2576040517f08c379a0000000000000000000000000000000000000000000000000000000008152600401610fb9906129a4565b60405180910390fd5b6000610fcc611624565b90506000815111610fec5760405180602001604052806000815250611017565b80610ff68461163b565b60405160200161100792919061270c565b6040516020818303038152906040525b915050919050565b6000600560008473ffffffffffffffffffffffffffffffffffffffff1673ffffffffffffffffffffffffffffffffffffffff16815260200190815260200160002060008373ffffffffffffffffffffffffffffffffffffffff1673ffffffffffffffffffffffffffffffffffffffff16815260200190815260200160002060009054906101000a900460ff16905092915050565b600960009054906101000a900473ffffffffffffffffffffffffffffffffffffffff1681565b60007f01ffc9a7000000000000000000000000000000000000000000000000000000007bffffffffffffffffffffffffffffffffffffffffffffffffffffffff1916827bffffffffffffffffffffffffffffffffffffffffffffffffffffffff1916149050919050565b60008073ffffffffffffffffffffffffffffffffffffffff166002600084815260200190815260200160002060009054906101000a900473ffffffffffffffffffffffffffffffffffffffff1673ffffffffffffffffffffffffffffffffffffffff1614159050919050565b600033905090565b816004600083815260200190815260200160002060006101000a81548173ffffffffffffffffffffffffffffffffffffffff021916908373ffffffffffffffffffffffffffffffffffffffff160217905550808273ffffffffffffffffffffffffffffffffffffffff1661122a83610ad3565b73ffffffffffffffffffffffffffffffffffffffff167f8c5be1e5ebec7d5bd14f71427d1e84f3dd0314c0f7b2291e5b200ac8c7c3b92560405160405180910390a45050565b61128a8282604051806020016040528060008152506117e8565b5050565b600061129982611143565b6112d8576040517f08c379a00000000000000000000000000000000000000000000000000000000081526004016112cf906128c4565b60405180910390fd5b60006112e383610ad3565b90508073ffffffffffffffffffffffffffffffffffffffff168473ffffffffffffffffffffffffffffffffffffffff16148061135257508373ffffffffffffffffffffffffffffffffffffffff1661133a8461056c565b73ffffffffffffffffffffffffffffffffffffffff16145b806113635750611362818561101f565b5b91505092915050565b8273ffffffffffffffffffffffffffffffffffffffff1661138c82610ad3565b73ffffffffffffffffffffffffffffffffffffffff16146113e2576040517f08c379a00000000000000000000000000000000000000000000000000000000081526004016113d990612984565b60405180910390fd5b600073ffffffffffffffffffffffffffffffffffffffff168273ffffffffffffffffffffffffffffffffffffffff161415611452576040517f08c379a000000000000000000000000000000000000000000000000000000000815260040161144990612884565b60405180910390fd5b61145d838383611843565b6114686000826111b7565b6001600360008573ffffffffffffffffffffffffffffffffffffffff1673ffffffffffffffffffffffffffffffffffffffff16815260200190815260200160002060008282546114b89190612b7a565b925050819055506001600360008473ffffffffffffffffffffffffffffffffffffffff1673ffffffffffffffffffffffffffffffffffffffff168152602001908152602001600020600082825461150f9190612af3565b92505081905550816002600083815260200190815260200160002060006101000a81548173ffffffffffffffffffffffffffffffffffffffff021916908373ffffffffffffffffffffffffffffffffffffffff160217905550808273ffffffffffffffffffffffffffffffffffffffff168473ffffffffffffffffffffffffffffffffffffffff167fddf252ad1be2c89b69c2b068fc378daa952ba7f163c4a11628f55a4df523b3ef60405160405180910390a4505050565b6115d384848461136c565b6115df84848484611848565b61161e576040517f08c379a000000000000000000000000000000000000000000000000000000000815260040161161590612804565b60405180910390fd5b50505050565b606060405180602001604052806000815250905090565b60606000821415611683576040518060400160405280600181526020017f300000000000000000000000000000000000000000000000000000000000000081525090506117e3565b600082905060005b600082146116b557808061169e90612c96565b915050600a826116ae9190612b49565b915061168b565b60008167ffffffffffffffff8111156116f7577f4e487b7100000000000000000000000000000000000000000000000000000000600052604160045260246000fd5b6040519080825280601f01601f1916602001820160405280156117295781602001600182028036833780820191505090505b5090505b600085146117dc576001826117429190612b7a565b9150600a856117519190612cdf565b603061175d9190612af3565b60f81b818381518110611799577f4e487b7100000000000000000000000000000000000000000000000000000000600052603260045260246000fd5b60200101907effffffffffffffffffffffffffffffffffffffffffffffffffffffffffffff1916908160001a905350600a856117d59190612b49565b945061172d565b8093505050505b919050565b6117f283836119df565b6117ff6000848484611848565b61183e576040517f08c379a000000000000000000000000000000000000000000000000000000000815260040161183590612804565b60405180910390fd5b505050565b505050565b60006118698473ffffffffffffffffffffffffffffffffffffffff16611bad565b156119d2578373ffffffffffffffffffffffffffffffffffffffff1663150b7a026118926111af565b8786866040518563ffffffff1660e01b81526004016118b4949392919061274b565b602060405180830381600087803b1580156118ce57600080fd5b505af19250505080156118ff57506040513d601f19601f820116820180604052508101906118fc9190611f6c565b60015b611982573d806000811461192f576040519150601f19603f3d011682016040523d82523d6000602084013e611934565b606091505b5060008151141561197a576040517f08c379a000000000000000000000000000000000000000000000000000000000815260040161197190612804565b60405180910390fd5b805181602001fd5b63150b7a0260e01b7bffffffffffffffffffffffffffffffffffffffffffffffffffffffff1916817bffffffffffffffffffffffffffffffffffffffffffffffffffffffff1916149150506119d7565b600190505b949350505050565b600073ffffffffffffffffffffffffffffffffffffffff168273ffffffffffffffffffffffffffffffffffffffff161415611a4f576040517f08c379a0000000000000000000000000000000000000000000000000000000008152600401611a4690612944565b60405180910390fd5b611a5881611143565b15611a98576040517f08c379a0000000000000000000000000000000000000000000000000000000008152600401611a8f90612824565b60405180910390fd5b611aa460008383611843565b6001600360008473ffffffffffffffffffffffffffffffffffffffff1673ffffffffffffffffffffffffffffffffffffffff1681526020019081526020016000206000828254611af49190612af3565b92505081905550816002600083815260200190815260200160002060006101000a81548173ffffffffffffffffffffffffffffffffffffffff021916908373ffffffffffffffffffffffffffffffffffffffff160217905550808273ffffffffffffffffffffffffffffffffffffffff16600073ffffffffffffffffffffffffffffffffffffffff167fddf252ad1be2c89b69c2b068fc378daa952ba7f163c4a11628f55a4df523b3ef60405160405180910390a45050565b600080823b905060008111915050919050565b828054611bcc90612c64565b90600052602060002090601f016020900481019282611bee5760008555611c35565b82601f10611c0757805160ff1916838001178555611c35565b82800160010185558215611c35579182015b82811115611c34578251825591602001919060010190611c19565b5b509050611c429190611c46565b5090565b5b80821115611c5f576000816000905550600101611c47565b5090565b6000611c76611c7184612a50565b612a1f565b905082815260208101848484011115611c8e57600080fd5b611c99848285612c22565b509392505050565b6000611cb4611caf84612a80565b612a1f565b905082815260208101848484011115611ccc57600080fd5b611cd7848285612c22565b509392505050565b600081359050611cee81612ddd565b92915050565b600081359050611d0381612df4565b92915050565b600081359050611d1881612e0b565b92915050565b600081519050611d2d81612e0b565b92915050565b600082601f830112611d4457600080fd5b8135611d54848260208601611c63565b91505092915050565b600082601f830112611d6e57600080fd5b8135611d7e848260208601611ca1565b91505092915050565b600081359050611d9681612e22565b92915050565b600060208284031215611dae57600080fd5b6000611dbc84828501611cdf565b91505092915050565b60008060408385031215611dd857600080fd5b6000611de685828601611cdf565b9250506020611df785828601611cdf565b9150509250929050565b600080600060608486031215611e1657600080fd5b6000611e2486828701611cdf565b9350506020611e3586828701611cdf565b9250506040611e4686828701611d87565b9150509250925092565b60008060008060808587031215611e6657600080fd5b6000611e7487828801611cdf565b9450506020611e8587828801611cdf565b9350506040611e9687828801611d87565b925050606085013567ffffffffffffffff811115611eb357600080fd5b611ebf87828801611d33565b91505092959194509250565b60008060408385031215611ede57600080fd5b6000611eec85828601611cdf565b9250506020611efd85828601611cf4565b9150509250929050565b60008060408385031215611f1a57600080fd5b6000611f2885828601611cdf565b9250506020611f3985828601611d87565b9150509250929050565b600060208284031215611f5557600080fd5b6000611f6384828501611d09565b91505092915050565b600060208284031215611f7e57600080fd5b6000611f8c84828501611d1e565b91505092915050565b60008060408385031215611fa857600080fd5b600083013567ffffffffffffffff811115611fc257600080fd5b611fce85828601611d5d565b9250506020611fdf85828601611cdf565b9150509250929050565b600060208284031215611ffb57600080fd5b600061200984828501611d87565b91505092915050565b6000806040838503121561202557600080fd5b600061203385828601611d87565b925050602061204485828601611d87565b9150509250929050565b61205781612bae565b82525050565b61206681612bc0565b82525050565b600061207782612ab0565b6120818185612ac6565b9350612091818560208601612c31565b61209a81612dcc565b840191505092915050565b60006120b082612abb565b6120ba8185612ad7565b93506120ca818560208601612c31565b6120d381612dcc565b840191505092915050565b60006120e982612abb565b6120f38185612ae8565b9350612103818560208601612c31565b80840191505092915050565b600061211c603283612ad7565b91507f4552433732313a207472616e7366657220746f206e6f6e20455243373231526560008301527f63656976657220696d706c656d656e74657200000000000000000000000000006020830152604082019050919050565b6000612182601c83612ad7565b91507f4552433732313a20746f6b656e20616c7265616479206d696e746564000000006000830152602082019050919050565b60006121c2602783612ad7565b91507f4f6e6c792067616d65206f776e65722063616e20637265617465206e6577206d60008301527f6f6e7374657273000000000000000000000000000000000000000000000000006020830152604082019050919050565b6000612228602283612ad7565b91507f4d757374206265206f776e6572206f66206d6f6e7374657220746f206261747460008301527f6c650000000000000000000000000000000000000000000000000000000000006020830152604082019050919050565b600061228e602483612ad7565b91507f4552433732313a207472616e7366657220746f20746865207a65726f2061646460008301527f72657373000000000000000000000000000000000000000000000000000000006020830152604082019050919050565b60006122f4601983612ad7565b91507f4552433732313a20617070726f766520746f2063616c6c6572000000000000006000830152602082019050919050565b6000612334602c83612ad7565b91507f4552433732313a206f70657261746f7220717565727920666f72206e6f6e657860008301527f697374656e7420746f6b656e00000000000000000000000000000000000000006020830152604082019050919050565b600061239a603883612ad7565b91507f4552433732313a20617070726f76652063616c6c6572206973206e6f74206f7760008301527f6e6572206e6f7220617070726f76656420666f7220616c6c00000000000000006020830152604082019050919050565b6000612400602a83612ad7565b91507f4552433732313a2062616c616e636520717565727920666f7220746865207a6560008301527f726f2061646472657373000000000000000000000000000000000000000000006020830152604082019050919050565b6000612466602983612ad7565b91507f4552433732313a206f776e657220717565727920666f72206e6f6e657869737460008301527f656e7420746f6b656e00000000000000000000000000000000000000000000006020830152604082019050919050565b60006124cc602083612ad7565b91507f4552433732313a206d696e7420746f20746865207a65726f20616464726573736000830152602082019050919050565b600061250c602c83612ad7565b91507f4552433732313a20617070726f76656420717565727920666f72206e6f6e657860008301527f697374656e7420746f6b656e00000000000000000000000000000000000000006020830152604082019050919050565b6000612572602983612ad7565b91507f4552433732313a207472616e73666572206f6620746f6b656e2074686174206960008301527f73206e6f74206f776e00000000000000000000000000000000000000000000006020830152604082019050919050565b60006125d8602f83612ad7565b91507f4552433732314d657461646174613a2055524920717565727920666f72206e6f60008301527f6e6578697374656e7420746f6b656e00000000000000000000000000000000006020830152604082019050919050565b600061263e602183612ad7565b91507f4552433732313a20617070726f76616c20746f2063757272656e74206f776e6560008301527f72000000000000000000000000000000000000000000000000000000000000006020830152604082019050919050565b60006126a4603183612ad7565b91507f4552433732313a207472616e736665722063616c6c6572206973206e6f74206f60008301527f776e6572206e6f7220617070726f7665640000000000000000000000000000006020830152604082019050919050565b61270681612c18565b82525050565b600061271882856120de565b915061272482846120de565b91508190509392505050565b6000602082019050612745600083018461204e565b92915050565b6000608082019050612760600083018761204e565b61276d602083018661204e565b61277a60408301856126fd565b818103606083015261278c818461206c565b905095945050505050565b60006020820190506127ac600083018461205d565b92915050565b600060208201905081810360008301526127cc81846120a5565b905092915050565b600060408201905081810360008301526127ee81856120a5565b90506127fd60208301846126fd565b9392505050565b6000602082019050818103600083015261281d8161210f565b9050919050565b6000602082019050818103600083015261283d81612175565b9050919050565b6000602082019050818103600083015261285d816121b5565b9050919050565b6000602082019050818103600083015261287d8161221b565b9050919050565b6000602082019050818103600083015261289d81612281565b9050919050565b600060208201905081810360008301526128bd816122e7565b9050919050565b600060208201905081810360008301526128dd81612327565b9050919050565b600060208201905081810360008301526128fd8161238d565b9050919050565b6000602082019050818103600083015261291d816123f3565b9050919050565b6000602082019050818103600083015261293d81612459565b9050919050565b6000602082019050818103600083015261295d816124bf565b9050919050565b6000602082019050818103600083015261297d816124ff565b9050919050565b6000602082019050818103600083015261299d81612565565b9050919050565b600060208201905081810360008301526129bd816125cb565b9050919050565b600060208201905081810360008301526129dd81612631565b9050919050565b600060208201905081810360008301526129fd81612697565b9050919050565b6000602082019050612a1960008301846126fd565b92915050565b6000604051905081810181811067ffffffffffffffff82111715612a4657612a45612d9d565b5b8060405250919050565b600067ffffffffffffffff821115612a6b57612a6a612d9d565b5b601f19601f8301169050602081019050919050565b600067ffffffffffffffff821115612a9b57612a9a612d9d565b5b601f19601f8301169050602081019050919050565b600081519050919050565b600081519050919050565b600082825260208201905092915050565b600082825260208201905092915050565b600081905092915050565b6000612afe82612c18565b9150612b0983612c18565b9250827fffffffffffffffffffffffffffffffffffffffffffffffffffffffffffffffff03821115612b3e57612b3d612d10565b5b828201905092915050565b6000612b5482612c18565b9150612b5f83612c18565b925082612b6f57612b6e612d3f565b5b828204905092915050565b6000612b8582612c18565b9150612b9083612c18565b925082821015612ba357612ba2612d10565b5b828203905092915050565b6000612bb982612bf8565b9050919050565b60008115159050919050565b60007fffffffff0000000000000000000000000000000000000000000000000000000082169050919050565b600073ffffffffffffffffffffffffffffffffffffffff82169050919050565b6000819050919050565b82818337600083830152505050565b60005b83811015612c4f578082015181840152602081019050612c34565b83811115612c5e576000848401525b50505050565b60006002820490506001821680612c7c57607f821691505b60208210811415612c9057612c8f612d6e565b5b50919050565b6000612ca182612c18565b91507fffffffffffffffffffffffffffffffffffffffffffffffffffffffffffffffff821415612cd457612cd3612d10565b5b600182019050919050565b6000612cea82612c18565b9150612cf583612c18565b925082612d0557612d04612d3f565b5b828206905092915050565b7f4e487b7100000000000000000000000000000000000000000000000000000000600052601160045260246000fd5b7f4e487b7100000000000000000000000000000000000000000000000000000000600052601260045260246000fd5b7f4e487b7100000000000000000000000000000000000000000000000000000000600052602260045260246000fd5b7f4e487b7100000000000000000000000000000000000000000000000000000000600052604160045260246000fd5b6000601f19601f8301169050919050565b612de681612bae565b8114612df157600080fd5b50565b612dfd81612bc0565b8114612e0857600080fd5b50565b612e1481612bcc565b8114612e1f57600080fd5b50565b612e2b81612c18565b8114612e3657600080fd5b5056fea2646970667358221220367d9da988741fe33c66e34210ac3ab768739eccc1ee97181a7f9434ff3eabbf64736f6c63430008000033",
  "immutableReferences": {},
  "source": "// SPDX-License-Identifier: MIT\npragma solidity ^0.8.0;\n\nimport \"@openzeppelin/contracts/token/ERC721/ERC721.sol\";\n\ncontract Ethermon is ERC721 {\n\n    string monji = \"i tried \";\n    \n    uint myVariable;\n\n    function set(uint x) public {\n        myVariable = x;\n    }\n\n    function get() view public returns (uint) {\n        return myVariable;\n    }\n\n    function getMonji() view public returns(string memory) {\n       return monji;\n    }\n\n    struct Monster {\n        string name;\n        uint level;\n    }\n\n    Monster[] public monsters;\n    address public gameOwner;\n\n    //function getMonster(uint  addr) public view returns() {\n        //return monsters[addr];\n    //}\n\n    //function returnMonsters(uint _monsterId) public {\n        //return monsters;\n    //}\n\n    constructor() ERC721 ( \"AB\" ,  \"CC\") {\n        gameOwner = msg.sender;\n        set(78);\n    }\n\n    modifier onlyOwnerOf(uint _monsterId) {\n        require(ownerOf(_monsterId) == msg.sender, \"Must be owner of monster to battle\");\n        _;\n    }\n\n    function battle(uint _attackingMonster, uint _defendingMonster) public onlyOwnerOf(_attackingMonster) {\n        Monster storage attacker = monsters[_attackingMonster];\n        Monster storage defender = monsters[_defendingMonster];\n\n        if (attacker.level >= defender.level) {\n            attacker.level += 2;\n            defender.level += 1;\n        }\n        else{\n            attacker.level += 1;\n            attacker.level += 2;\n        }\n    }\n\n    function createNewMonster(string memory _name, address _to) public {\n        require(msg.sender == gameOwner, \"Only game owner can create new monsters\");\n        uint id = monsters.length;\n        monsters.push(Monster(_name, 1));\n        _safeMint(_to, id);\n    }\n}\n\n",
  "sourcePath": "C:/all code/Blockchain/my-pokemon/contracts/Ethermon.sol",
  "compiler": {
    "name": "solc",
    "version": "0.8.0+commit.c7dfd78e.Emscripten.clang"
  },
  "schemaVersion": "3.2.3",
  "updatedAt": "2021-11-13T07:55:59.072Z",
  "devdoc": {
    "kind": "dev",
    "methods": {
      "approve(address,uint256)": {
        "details": "See {IERC721-approve}."
      },
      "balanceOf(address)": {
        "details": "See {IERC721-balanceOf}."
      },
      "getApproved(uint256)": {
        "details": "See {IERC721-getApproved}."
      },
      "isApprovedForAll(address,address)": {
        "details": "See {IERC721-isApprovedForAll}."
      },
      "name()": {
        "details": "See {IERC721Metadata-name}."
      },
      "ownerOf(uint256)": {
        "details": "See {IERC721-ownerOf}."
      },
      "safeTransferFrom(address,address,uint256)": {
        "details": "See {IERC721-safeTransferFrom}."
      },
      "safeTransferFrom(address,address,uint256,bytes)": {
        "details": "See {IERC721-safeTransferFrom}."
      },
      "setApprovalForAll(address,bool)": {
        "details": "See {IERC721-setApprovalForAll}."
      },
      "supportsInterface(bytes4)": {
        "details": "See {IERC165-supportsInterface}."
      },
      "symbol()": {
        "details": "See {IERC721Metadata-symbol}."
      },
      "tokenURI(uint256)": {
        "details": "See {IERC721Metadata-tokenURI}."
      },
      "transferFrom(address,address,uint256)": {
        "details": "See {IERC721-transferFrom}."
      }
    },
    "version": 1
  },
  "userdoc": {
    "kind": "user",
    "methods": {},
    "version": 1
  }
}